{
  "contractName": "OracleService",
  "abi": [
    {
      "constant": true,
      "inputs": [],
      "name": "lastRetrievedDataId",
      "outputs": [
        {
          "name": "",
          "type": "uint256"
        }
      ],
      "payable": false,
      "stateMutability": "view",
      "type": "function"
    },
    {
      "constant": true,
      "inputs": [
        {
          "name": "",
          "type": "uint256"
        }
      ],
      "name": "retrievedDataIds",
      "outputs": [
        {
          "name": "",
          "type": "uint256"
        }
      ],
      "payable": false,
      "stateMutability": "view",
      "type": "function"
    },
    {
      "constant": true,
      "inputs": [],
      "name": "r",
      "outputs": [
        {
          "name": "",
          "type": "address"
        }
      ],
      "payable": false,
      "stateMutability": "view",
      "type": "function"
    },
    {
      "constant": true,
      "inputs": [],
      "name": "owner",
      "outputs": [
        {
          "name": "",
          "type": "address"
        }
      ],
      "payable": false,
      "stateMutability": "view",
      "type": "function"
    },
    {
      "constant": true,
      "inputs": [],
      "name": "dp",
      "outputs": [
        {
          "name": "",
          "type": "address"
        }
      ],
      "payable": false,
      "stateMutability": "view",
      "type": "function"
    },
    {
      "constant": true,
      "inputs": [],
      "name": "gas_limit",
      "outputs": [
        {
          "name": "",
          "type": "uint256"
        }
      ],
      "payable": false,
      "stateMutability": "view",
      "type": "function"
    },
    {
      "constant": true,
      "inputs": [
        {
          "name": "",
          "type": "uint256"
        }
      ],
      "name": "rd",
      "outputs": [
        {
          "name": "dataReference",
          "type": "bytes32"
        },
        {
          "name": "dataRequester",
          "type": "address"
        },
        {
          "name": "otp",
          "type": "string"
        },
        {
          "name": "state",
          "type": "uint8"
        },
        {
          "name": "accessToken",
          "type": "uint256"
        },
        {
          "name": "dataCreator",
          "type": "address"
        },
        {
          "name": "patient",
          "type": "address"
        }
      ],
      "payable": false,
      "stateMutability": "view",
      "type": "function"
    },
    {
      "inputs": [
        {
          "name": "_dp",
          "type": "address"
        },
        {
          "name": "_r",
          "type": "address"
        }
      ],
      "payable": true,
      "stateMutability": "payable",
      "type": "constructor"
    },
    {
      "anonymous": false,
      "inputs": [
        {
          "indexed": true,
          "name": "patient",
          "type": "address"
        },
        {
          "indexed": false,
          "name": "dataReference",
          "type": "bytes32"
        },
        {
          "indexed": false,
          "name": "dataRequester",
          "type": "address"
        },
        {
          "indexed": false,
          "name": "timestamp",
          "type": "uint256"
        },
        {
          "indexed": false,
          "name": "state",
          "type": "uint8"
        }
      ],
      "name": "retrieveDataLog",
      "type": "event"
    },
    {
      "constant": false,
      "inputs": [
        {
          "name": "_gas_limit",
          "type": "uint256"
        }
      ],
      "name": "setGasLimit",
      "outputs": [],
      "payable": false,
      "stateMutability": "nonpayable",
      "type": "function"
    },
    {
      "constant": true,
      "inputs": [
        {
          "name": "_id",
          "type": "uint256"
        }
      ],
      "name": "getRequestInfo",
      "outputs": [
        {
          "name": "dataReference",
          "type": "bytes32"
        },
        {
          "name": "dataRequester",
          "type": "address"
        }
      ],
      "payable": false,
      "stateMutability": "view",
      "type": "function"
    },
    {
      "constant": false,
      "inputs": [
        {
          "name": "_oraclizeId",
          "type": "bytes32"
        },
        {
          "name": "_result",
          "type": "string"
        }
      ],
      "name": "__callback",
      "outputs": [],
      "payable": false,
      "stateMutability": "nonpayable",
      "type": "function"
    },
    {
      "constant": false,
      "inputs": [
        {
          "name": "_myid",
          "type": "bytes32"
        },
        {
          "name": "_result",
          "type": "string"
        },
        {
          "name": "_proof",
          "type": "bytes"
        }
      ],
      "name": "__callback",
      "outputs": [],
      "payable": false,
      "stateMutability": "nonpayable",
      "type": "function"
    },
    {
      "constant": false,
      "inputs": [
        {
          "name": "_accessToken",
          "type": "uint256"
        },
        {
          "name": "_dataCreatorContract",
          "type": "address"
        }
      ],
      "name": "retrievData",
      "outputs": [],
      "payable": true,
      "stateMutability": "payable",
      "type": "function"
    },
    {
      "constant": true,
      "inputs": [],
      "name": "getRetrievedDataList",
      "outputs": [
        {
          "name": "",
          "type": "uint256[]"
        },
        {
          "name": "",
          "type": "bytes32[]"
        },
        {
          "name": "",
          "type": "address[]"
        },
        {
          "name": "",
          "type": "string[]"
        },
        {
          "name": "",
          "type": "uint8[]"
        },
        {
          "name": "",
          "type": "bytes32[]"
        }
      ],
      "payable": false,
      "stateMutability": "view",
      "type": "function"
    },
    {
      "constant": true,
      "inputs": [
        {
          "name": "_server",
          "type": "bytes"
        },
        {
          "name": "_id",
          "type": "uint256"
        }
      ],
      "name": "appendQuery",
      "outputs": [
        {
          "name": "",
          "type": "string"
        }
      ],
      "payable": false,
      "stateMutability": "pure",
      "type": "function"
    },
    {
      "constant": true,
      "inputs": [
        {
          "name": "str",
          "type": "string"
        }
      ],
      "name": "stringToBytes",
      "outputs": [
        {
          "name": "",
          "type": "bytes"
        }
      ],
      "payable": false,
      "stateMutability": "pure",
      "type": "function"
    }
  ],
  "bytecode": "0x6080604052623567e0600c55604051604080620046d383398101806040526200002c919081019062000c4a565b600073ffffffffffffffffffffffffffffffffffffffff168273ffffffffffffffffffffffffffffffffffffffff1614151515620000a1576040517f08c379a0000000000000000000000000000000000000000000000000000000008152600401620000989062000d56565b60405180910390fd5b600073ffffffffffffffffffffffffffffffffffffffff168173ffffffffffffffffffffffffffffffffffffffff161415151562000116576040517f08c379a00000000000000000000000000000000000000000000000000000000081526004016200010d9062000d78565b60405180910390fd5b62000135640df847580062000200640100000000026401000000009004565b81600960006101000a81548173ffffffffffffffffffffffffffffffffffffffff021916908373ffffffffffffffffffffffffffffffffffffffff16021790555080600a60006101000a81548173ffffffffffffffffffffffffffffffffffffffff021916908373ffffffffffffffffffffffffffffffffffffffff16021790555033600b60006101000a81548173ffffffffffffffffffffffffffffffffffffffff021916908373ffffffffffffffffffffffffffffffffffffffff160217905550505062000e31565b600073ffffffffffffffffffffffffffffffffffffffff16600160009054906101000a900473ffffffffffffffffffffffffffffffffffffffff1673ffffffffffffffffffffffffffffffffffffffff161480620002995750600062000297600160009054906101000a900473ffffffffffffffffffffffffffffffffffffffff1662000585640100000000026401000000009004565b145b15620002bc57620002ba600062000590640100000000026401000000009004565b505b600160009054906101000a900473ffffffffffffffffffffffffffffffffffffffff1673ffffffffffffffffffffffffffffffffffffffff166338cc48316040518163ffffffff167c0100000000000000000000000000000000000000000000000000000000028152600401602060405180830381600087803b1580156200034357600080fd5b505af115801562000358573d6000803e3d6000fd5b505050506040513d601f19601f820116820180604052506200037e919081019062000c1e565b73ffffffffffffffffffffffffffffffffffffffff166000809054906101000a900473ffffffffffffffffffffffffffffffffffffffff1673ffffffffffffffffffffffffffffffffffffffff16141515620004d657600160009054906101000a900473ffffffffffffffffffffffffffffffffffffffff1673ffffffffffffffffffffffffffffffffffffffff166338cc48316040518163ffffffff167c0100000000000000000000000000000000000000000000000000000000028152600401602060405180830381600087803b1580156200045b57600080fd5b505af115801562000470573d6000803e3d6000fd5b505050506040513d601f19601f8201168201806040525062000496919081019062000c1e565b6000806101000a81548173ffffffffffffffffffffffffffffffffffffffff021916908373ffffffffffffffffffffffffffffffffffffffff1602179055505b6000809054906101000a900473ffffffffffffffffffffffffffffffffffffffff1673ffffffffffffffffffffffffffffffffffffffff1663ca6ad1e4826040518263ffffffff167c01000000000000000000000000000000000000000000000000000000000281526004016200054e919062000d9a565b600060405180830381600087803b1580156200056957600080fd5b505af11580156200057e573d6000803e3d6000fd5b5050505050565b6000813b9050919050565b6000620005ab620005b2640100000000026401000000009004565b9050919050565b600080620005e3731d3b2638a7cc9f2cb3d298a3da7a90b67e5506ed62000585640100000000026401000000009004565b11156200069857731d3b2638a7cc9f2cb3d298a3da7a90b67e5506ed600160006101000a81548173ffffffffffffffffffffffffffffffffffffffff021916908373ffffffffffffffffffffffffffffffffffffffff1602179055506200068e6040805190810160405280600b81526020017f6574685f6d61696e6e657400000000000000000000000000000000000000000081525062000b11640100000000026401000000009004565b6001905062000b0e565b6000620006c873c03a2615d5efaf5f49f60b7bb6583eaec212fdf162000585640100000000026401000000009004565b11156200077d5773c03a2615d5efaf5f49f60b7bb6583eaec212fdf1600160006101000a81548173ffffffffffffffffffffffffffffffffffffffff021916908373ffffffffffffffffffffffffffffffffffffffff160217905550620007736040805190810160405280600c81526020017f6574685f726f707374656e33000000000000000000000000000000000000000081525062000b11640100000000026401000000009004565b6001905062000b0e565b6000620007ad73b7a07bcf2ba2f2703b24c0691b5278999c59ac7e62000585640100000000026401000000009004565b1115620008625773b7a07bcf2ba2f2703b24c0691b5278999c59ac7e600160006101000a81548173ffffffffffffffffffffffffffffffffffffffff021916908373ffffffffffffffffffffffffffffffffffffffff160217905550620008586040805190810160405280600981526020017f6574685f6b6f76616e000000000000000000000000000000000000000000000081525062000b11640100000000026401000000009004565b6001905062000b0e565b60006200089273146500cfd35b22e4a392fe0adc06de1a1368ed4862000585640100000000026401000000009004565b1115620009475773146500cfd35b22e4a392fe0adc06de1a1368ed48600160006101000a81548173ffffffffffffffffffffffffffffffffffffffff021916908373ffffffffffffffffffffffffffffffffffffffff1602179055506200093d6040805190810160405280600b81526020017f6574685f72696e6b65627900000000000000000000000000000000000000000081525062000b11640100000000026401000000009004565b6001905062000b0e565b600062000977736f485c8bf6fc43ea212e93bbf8ce046c7f1cb47562000585640100000000026401000000009004565b1115620009dd57736f485c8bf6fc43ea212e93bbf8ce046c7f1cb475600160006101000a81548173ffffffffffffffffffffffffffffffffffffffff021916908373ffffffffffffffffffffffffffffffffffffffff1602179055506001905062000b0e565b600062000a0d7320e12a1f859b3feae5fb2a0a32c18f5a65555bbf62000585640100000000026401000000009004565b111562000a73577320e12a1f859b3feae5fb2a0a32c18f5a65555bbf600160006101000a81548173ffffffffffffffffffffffffffffffffffffffff021916908373ffffffffffffffffffffffffffffffffffffffff1602179055506001905062000b0e565b600062000aa37351efaf4c8b3c9afbd5ab9f4bbc82784ab6ef8faa62000585640100000000026401000000009004565b111562000b09577351efaf4c8b3c9afbd5ab9f4bbc82784ab6ef8faa600160006101000a81548173ffffffffffffffffffffffffffffffffffffffff021916908373ffffffffffffffffffffffffffffffffffffffff1602179055506001905062000b0e565b600090505b90565b806002908051906020019062000b2992919062000b2d565b5050565b828054600181600116156101000203166002900490600052602060002090601f016020900481019282601f1062000b7057805160ff191683800117855562000ba1565b8280016001018555821562000ba1579182015b8281111562000ba057825182559160200191906001019062000b83565b5b50905062000bb0919062000bb4565b5090565b62000bd991905b8082111562000bd557600081600090555060010162000bbb565b5090565b90565b600062000bea825162000df5565b905092915050565b600062000c00825162000e09565b905092915050565b600062000c16825162000e1d565b905092915050565b60006020828403121562000c3157600080fd5b600062000c418482850162000bdc565b91505092915050565b6000806040838503121562000c5e57600080fd5b600062000c6e8582860162000bf2565b925050602062000c818582860162000c08565b9150509250929050565b6000602b82527f506c656173652070726f76696465204461746150726f66696c6520636f6e747260208301527f61637420616464726573730000000000000000000000000000000000000000006040830152606082019050919050565b6000602c82527f506c656173652070726f7669646520526567697374726174696f6e20636f6e7460208301527f72616374206164647265737300000000000000000000000000000000000000006040830152606082019050919050565b62000d508162000deb565b82525050565b6000602082019050818103600083015262000d718162000c8b565b9050919050565b6000602082019050818103600083015262000d938162000ce8565b9050919050565b600060208201905062000db1600083018462000d45565b92915050565b600062000dc48262000dcb565b9050919050565b600073ffffffffffffffffffffffffffffffffffffffff82169050919050565b6000819050919050565b600062000e028262000dcb565b9050919050565b600062000e168262000db7565b9050919050565b600062000e2a8262000db7565b9050919050565b6138928062000e416000396000f3fe6080604052600436106100db576000357c0100000000000000000000000000000000000000000000000000000000900463ffffffff1680630b816045146100e057806314dcfa9b1461011e57806327dc297e1461014957806338bbfa501461017257806346265a7a1461019b5780634dc59db5146101d857806368e6da73146101f45780636c8ae38c14610231578063728b6e941461025c5780638da5cb5b1461028c57806393eb049d146102b7578063d4180b58146102e2578063d90923d91461030d578063e106fb4b14610350578063ee7d72b41461038d575b600080fd5b3480156100ec57600080fd5b5061010760048036036101029190810190612c42565b6103b6565b6040516101159291906132e4565b60405180910390f35b34801561012a57600080fd5b50610133610410565b6040516101409190613565565b60405180910390f35b34801561015557600080fd5b50610170600480360361016b9190810190612ada565b610416565b005b34801561017e57600080fd5b5061019960048036036101949190810190612b2e565b610752565b005b3480156101a757600080fd5b506101c260048036036101bd9190810190612bad565b610757565b6040516101cf9190613473565b60405180910390f35b6101f260048036036101ed9190810190612c94565b610853565b005b34801561020057600080fd5b5061021b60048036036102169190810190612c42565b61106b565b6040516102289190613565565b60405180910390f35b34801561023d57600080fd5b5061024661108e565b6040516102539190613405565b60405180910390f35b34801561026857600080fd5b506102716110b4565b6040516102839695949392919061323e565b60405180910390f35b34801561029857600080fd5b506102a1611609565b6040516102ae9190613223565b60405180910390f35b3480156102c357600080fd5b506102cc61162f565b6040516102d991906133ea565b60405180910390f35b3480156102ee57600080fd5b506102f7611655565b6040516103049190613565565b60405180910390f35b34801561031957600080fd5b50610334600480360361032f9190810190612c42565b61165b565b604051610347979695949392919061330d565b60405180910390f35b34801561035c57600080fd5b5061037760048036036103729190810190612c01565b6117a2565b60405161038491906133c8565b60405180910390f35b34801561039957600080fd5b506103b460048036036103af9190810190612c42565b6117ac565b005b600080600560008481526020019081526020016000206000015491506005600084815260200190815260200160002060010160009054906101000a900473ffffffffffffffffffffffffffffffffffffffff169050915091565b60075481565b60405160200180600001905060405160208183030381529060405280519060200120816040516020018082805190602001908083835b602083101515610471578051825260208201915060208101905060208303925061044c565b6001836020036101000a038019825116818451168082178552505050505050905001915050604051602081830303815290604052805190602001201480610570575060405160200180807f3430340000000000000000000000000000000000000000000000000000000000815250600301905060405160208183030381529060405280519060200120816040516020018082805190602001908083835b602083101515610533578051825260208201915060208101905060208303925061050e565b6001836020036101000a03801982511681845116808217855250505050505090500191505060405160208183030381529060405280519060200120145b156105c5576002600560006006600086815260200190815260200160002054815260200190815260200160002060030160006101000a81548160ff021916908360028111156105bb57fe5b021790555061074e565b80600560006006600086815260200190815260200160002054815260200190815260200160002060020190805190602001906106029291906125cb565b506001600560006006600086815260200190815260200160002054815260200190815260200160002060030160006101000a81548160ff0219169083600281111561064957fe5b02179055506000600560006006600086815260200190815260200160002054815260200190815260200160002060050160009054906101000a900473ffffffffffffffffffffffffffffffffffffffff1690508073ffffffffffffffffffffffffffffffffffffffff166362b296056005600060066000888152602001908152602001600020548152602001908152602001600020600401546040518263ffffffff167c010000000000000000000000000000000000000000000000000000000002815260040161071a9190613565565b600060405180830381600087803b15801561073457600080fd5b505af1158015610748573d6000803e3d6000fd5b50505050505b5050565b505050565b606082610763836117b6565b6040516020018083805190602001908083835b60208310151561079b5780518252602082019150602081019050602083039250610776565b6001836020036101000a038019825116818451168082178552505050505050905001807f676574446174612f00000000000000000000000000000000000000000000000081525060080182805190602001908083835b60208310151561081657805182526020820191506020810190506020830392506107f1565b6001836020036101000a03801982511681845116808217855250505050505090500192505050604051602081830303815290604052905092915050565b60008190506000806000808473ffffffffffffffffffffffffffffffffffffffff1663991acf6e886040518263ffffffff167c01000000000000000000000000000000000000000000000000000000000281526004016108b39190613565565b60a06040518083038186803b1580156108cb57600080fd5b505afa1580156108df573d6000803e3d6000fd5b505050506040513d601f19601f820116820180604052506109039190810190612cd0565b945094509450509350600080600a60009054906101000a900473ffffffffffffffffffffffffffffffffffffffff1673ffffffffffffffffffffffffffffffffffffffff1663f2cb8632856040518263ffffffff167c01000000000000000000000000000000000000000000000000000000000281526004016109869190613223565b60006040518083038186803b15801561099e57600080fd5b505afa1580156109b2573d6000803e3d6000fd5b505050506040513d6000823e3d601f19601f820116820180604052506109db9190810190612999565b945050505091503373ffffffffffffffffffffffffffffffffffffffff168273ffffffffffffffffffffffffffffffffffffffff16141515610a52576040517f08c379a0000000000000000000000000000000000000000000000000000000008152600401610a4990613545565b60405180910390fd5b60011515811515141515610a9b576040517f08c379a0000000000000000000000000000000000000000000000000000000008152600401610a92906134c5565b60405180910390fd5b841515610add576040517f08c379a0000000000000000000000000000000000000000000000000000000008152600401610ad4906134e5565b60405180910390fd5b6000600960009054906101000a900473ffffffffffffffffffffffffffffffffffffffff1673ffffffffffffffffffffffffffffffffffffffff166323816199856040518263ffffffff167c0100000000000000000000000000000000000000000000000000000000028152600401610b5691906132c9565b60006040518083038186803b158015610b6e57600080fd5b505afa158015610b82573d6000803e3d6000fd5b505050506040513d6000823e3d601f19601f82011682018060405250610bab919081019061287d565b50505050509050600081905060008173ffffffffffffffffffffffffffffffffffffffff16635b8aae598a6040518263ffffffff167c0100000000000000000000000000000000000000000000000000000000028152600401610c0e9190613565565b60c06040518083038186803b158015610c2657600080fd5b505afa158015610c3a573d6000803e3d6000fd5b505050506040513d601f19601f82011682018060405250610c5e9190810190612a51565b50945050505050801515610ca7576040517f08c379a0000000000000000000000000000000000000000000000000000000008152600401610c9e90613525565b60405180910390fd5b6060600a60009054906101000a900473ffffffffffffffffffffffffffffffffffffffff1673ffffffffffffffffffffffffffffffffffffffff16637ec61e968d6040518263ffffffff167c0100000000000000000000000000000000000000000000000000000000028152600401610d209190613223565b60006040518083038186803b158015610d3857600080fd5b505afa158015610d4c573d6000803e3d6000fd5b505050506040513d6000823e3d601f19601f82011682018060405250610d75919081019061291e565b50925050503073ffffffffffffffffffffffffffffffffffffffff1631610dd36040805190810160405280600381526020017f55524c0000000000000000000000000000000000000000000000000000000000815250600c5461190f565b101515610e15576040517f08c379a0000000000000000000000000000000000000000000000000000000008152600401610e0c90613505565b60405180910390fd5b6007600081548092919060010191905055506000610e766040805190810160405280600381526020017f55524c0000000000000000000000000000000000000000000000000000000000815250610e6e84600754610757565b600c54611c8b565b905060075460066000838152602001908152602001600020819055508760056000600660008581526020019081526020016000205481526020019081526020016000206000018190555088600560006006600085815260200190815260200160002054815260200190815260200160002060010160006101000a81548173ffffffffffffffffffffffffffffffffffffffff021916908373ffffffffffffffffffffffffffffffffffffffff1602179055508c600560006006600085815260200190815260200160002054815260200190815260200160002060050160006101000a81548173ffffffffffffffffffffffffffffffffffffffff021916908373ffffffffffffffffffffffffffffffffffffffff1602179055508d6005600060066000858152602001908152602001600020548152602001908152602001600020600401819055506007546006600083815260200190815260200160002081905550600860075490806001815401808255809150509060018203906000526020600020016000909192909190915055508473ffffffffffffffffffffffffffffffffffffffff167f62c76466bcb0a114e252ee3a5686f4dd663de271fd16ebd42305c56145bc07e4898b4260006040516110539493929190613383565b60405180910390a25050505050505050505050505050565b60088181548110151561107a57fe5b906000526020600020016000915090505481565b600a60009054906101000a900473ffffffffffffffffffffffffffffffffffffffff1681565b60608060608060608060606008805490506040519080825280602002602001820160405280156110f35781602001602082028038833980820191505090505b509050606060088054905060405190808252806020026020018201604052801561112c5781602001602082028038833980820191505090505b50905060606008805490506040519080825280602002602001820160405280156111655781602001602082028038833980820191505090505b50905060606008805490506040519080825280602002602001820160405280156111a357816020015b606081526020019060019003908161118e5790505b50905060606008805490506040519080825280602002602001820160405280156111dc5781602001602082028038833980820191505090505b50905060606008805490506040519080825280602002602001820160405280156112155781602001602082028038833980820191505090505b50905060008090505b6008805490508110156115e8576000600a60009054906101000a900473ffffffffffffffffffffffffffffffffffffffff1673ffffffffffffffffffffffffffffffffffffffff1663f2cb86326005600060088681548110151561127e57fe5b9060005260206000200154815260200190815260200160002060010160009054906101000a900473ffffffffffffffffffffffffffffffffffffffff166040518263ffffffff167c01000000000000000000000000000000000000000000000000000000000281526004016112f39190613223565b60006040518083038186803b15801561130b57600080fd5b505afa15801561131f573d6000803e3d6000fd5b505050506040513d6000823e3d601f19601f820116820180604052506113489190810190612999565b5050505090503373ffffffffffffffffffffffffffffffffffffffff168173ffffffffffffffffffffffffffffffffffffffff1614156115da5781888381518110151561139157fe5b9060200190602002018181525050600560006008848154811015156113b257fe5b906000526020600020015481526020019081526020016000206000015487838151811015156113dd57fe5b9060200190602002018181525050600560006008848154811015156113fe57fe5b9060005260206000200154815260200190815260200160002060010160009054906101000a900473ffffffffffffffffffffffffffffffffffffffff16868381518110151561144957fe5b9060200190602002019073ffffffffffffffffffffffffffffffffffffffff16908173ffffffffffffffffffffffffffffffffffffffff16815250506005600060088481548110151561149857fe5b906000526020600020015481526020019081526020016000206002018054600181600116156101000203166002900480601f0160208091040260200160405190810160405280929190818152602001828054600181600116156101000203166002900480156115485780601f1061151d57610100808354040283529160200191611548565b820191906000526020600020905b81548152906001019060200180831161152b57829003601f168201915b5050505050858381518110151561155b57fe5b906020019060200201819052506005600060088481548110151561157b57fe5b9060005260206000200154815260200190815260200160002060030160009054906101000a900460ff1684838151811015156115b357fe5b9060200190602002019060028111156115c857fe5b908160028111156115d557fe5b815250505b50808060010191505061121e565b508585858585859b509b509b509b509b509b50505050505050909192939495565b600b60009054906101000a900473ffffffffffffffffffffffffffffffffffffffff1681565b600960009054906101000a900473ffffffffffffffffffffffffffffffffffffffff1681565b600c5481565b60056020528060005260406000206000915090508060000154908060010160009054906101000a900473ffffffffffffffffffffffffffffffffffffffff1690806002018054600181600116156101000203166002900480601f0160208091040260200160405190810160405280929190818152602001828054600181600116156101000203166002900480156117335780601f1061170857610100808354040283529160200191611733565b820191906000526020600020905b81548152906001019060200180831161171657829003601f168201915b5050505050908060030160009054906101000a900460ff16908060040154908060050160009054906101000a900473ffffffffffffffffffffffffffffffffffffffff16908060060160009054906101000a900473ffffffffffffffffffffffffffffffffffffffff16905087565b6060819050919050565b80600c8190555050565b606060008214156117fe576040805190810160405280600181526020017f3000000000000000000000000000000000000000000000000000000000000000815250905061190a565b600082905060005b60008214151561182c578080600101915050600a8281151561182457fe5b049150611806565b6060816040519080825280601f01601f1916602001820160405280156118615781602001600182028038833980820191505090505b50905060006001830390505b60008614151561190257600a8681151561188357fe5b066030017f0100000000000000000000000000000000000000000000000000000000000000028282806001900393508151811015156118be57fe5b9060200101907effffffffffffffffffffffffffffffffffffffffffffffffffffffffffffff1916908160001a905350600a868115156118fa57fe5b04955061186d565b819450505050505b919050565b60008073ffffffffffffffffffffffffffffffffffffffff16600160009054906101000a900473ffffffffffffffffffffffffffffffffffffffff1673ffffffffffffffffffffffffffffffffffffffff16148061199757506000611995600160009054906101000a900473ffffffffffffffffffffffffffffffffffffffff166120ff565b145b156119a8576119a6600061210a565b505b600160009054906101000a900473ffffffffffffffffffffffffffffffffffffffff1673ffffffffffffffffffffffffffffffffffffffff166338cc48316040518163ffffffff167c0100000000000000000000000000000000000000000000000000000000028152600401602060405180830381600087803b158015611a2e57600080fd5b505af1158015611a42573d6000803e3d6000fd5b505050506040513d601f19601f82011682018060405250611a669190810190612854565b73ffffffffffffffffffffffffffffffffffffffff166000809054906101000a900473ffffffffffffffffffffffffffffffffffffffff1673ffffffffffffffffffffffffffffffffffffffff16141515611bb957600160009054906101000a900473ffffffffffffffffffffffffffffffffffffffff1673ffffffffffffffffffffffffffffffffffffffff166338cc48316040518163ffffffff167c0100000000000000000000000000000000000000000000000000000000028152600401602060405180830381600087803b158015611b4157600080fd5b505af1158015611b55573d6000803e3d6000fd5b505050506040513d601f19601f82011682018060405250611b799190810190612854565b6000806101000a81548173ffffffffffffffffffffffffffffffffffffffff021916908373ffffffffffffffffffffffffffffffffffffffff1602179055505b6000809054906101000a900473ffffffffffffffffffffffffffffffffffffffff1673ffffffffffffffffffffffffffffffffffffffff16632ef3accc84846040518363ffffffff167c0100000000000000000000000000000000000000000000000000000000028152600401611c31929190613495565b602060405180830381600087803b158015611c4b57600080fd5b505af1158015611c5f573d6000803e3d6000fd5b505050506040513d601f19601f82011682018060405250611c839190810190612c6b565b905092915050565b60008073ffffffffffffffffffffffffffffffffffffffff16600160009054906101000a900473ffffffffffffffffffffffffffffffffffffffff1673ffffffffffffffffffffffffffffffffffffffff161480611d1357506000611d11600160009054906101000a900473ffffffffffffffffffffffffffffffffffffffff166120ff565b145b15611d2457611d22600061210a565b505b600160009054906101000a900473ffffffffffffffffffffffffffffffffffffffff1673ffffffffffffffffffffffffffffffffffffffff166338cc48316040518163ffffffff167c0100000000000000000000000000000000000000000000000000000000028152600401602060405180830381600087803b158015611daa57600080fd5b505af1158015611dbe573d6000803e3d6000fd5b505050506040513d601f19601f82011682018060405250611de29190810190612854565b73ffffffffffffffffffffffffffffffffffffffff166000809054906101000a900473ffffffffffffffffffffffffffffffffffffffff1673ffffffffffffffffffffffffffffffffffffffff16141515611f3557600160009054906101000a900473ffffffffffffffffffffffffffffffffffffffff1673ffffffffffffffffffffffffffffffffffffffff166338cc48316040518163ffffffff167c0100000000000000000000000000000000000000000000000000000000028152600401602060405180830381600087803b158015611ebd57600080fd5b505af1158015611ed1573d6000803e3d6000fd5b505050506040513d601f19601f82011682018060405250611ef59190810190612854565b6000806101000a81548173ffffffffffffffffffffffffffffffffffffffff021916908373ffffffffffffffffffffffffffffffffffffffff1602179055505b60008060009054906101000a900473ffffffffffffffffffffffffffffffffffffffff1673ffffffffffffffffffffffffffffffffffffffff16632ef3accc86856040518363ffffffff167c0100000000000000000000000000000000000000000000000000000000028152600401611faf929190613495565b602060405180830381600087803b158015611fc957600080fd5b505af1158015611fdd573d6000803e3d6000fd5b505050506040513d601f19601f820116820180604052506120019190810190612c6b565b9050823a02670de0b6b3a7640000018111156120245760006001029150506120f8565b6000809054906101000a900473ffffffffffffffffffffffffffffffffffffffff1673ffffffffffffffffffffffffffffffffffffffff1663c51be90f8260008888886040518663ffffffff167c01000000000000000000000000000000000000000000000000000000000281526004016120a29493929190613420565b6020604051808303818588803b1580156120bb57600080fd5b505af11580156120cf573d6000803e3d6000fd5b50505050506040513d601f19601f820116820180604052506120f49190810190612a28565b9150505b9392505050565b6000813b9050919050565b600061211461211b565b9050919050565b60008061213b731d3b2638a7cc9f2cb3d298a3da7a90b67e5506ed6120ff565b11156121dd57731d3b2638a7cc9f2cb3d298a3da7a90b67e5506ed600160006101000a81548173ffffffffffffffffffffffffffffffffffffffff021916908373ffffffffffffffffffffffffffffffffffffffff1602179055506121d46040805190810160405280600b81526020017f6574685f6d61696e6e65740000000000000000000000000000000000000000008152506125b1565b600190506125ae565b60006121fc73c03a2615d5efaf5f49f60b7bb6583eaec212fdf16120ff565b111561229e5773c03a2615d5efaf5f49f60b7bb6583eaec212fdf1600160006101000a81548173ffffffffffffffffffffffffffffffffffffffff021916908373ffffffffffffffffffffffffffffffffffffffff1602179055506122956040805190810160405280600c81526020017f6574685f726f707374656e3300000000000000000000000000000000000000008152506125b1565b600190506125ae565b60006122bd73b7a07bcf2ba2f2703b24c0691b5278999c59ac7e6120ff565b111561235f5773b7a07bcf2ba2f2703b24c0691b5278999c59ac7e600160006101000a81548173ffffffffffffffffffffffffffffffffffffffff021916908373ffffffffffffffffffffffffffffffffffffffff1602179055506123566040805190810160405280600981526020017f6574685f6b6f76616e00000000000000000000000000000000000000000000008152506125b1565b600190506125ae565b600061237e73146500cfd35b22e4a392fe0adc06de1a1368ed486120ff565b11156124205773146500cfd35b22e4a392fe0adc06de1a1368ed48600160006101000a81548173ffffffffffffffffffffffffffffffffffffffff021916908373ffffffffffffffffffffffffffffffffffffffff1602179055506124176040805190810160405280600b81526020017f6574685f72696e6b6562790000000000000000000000000000000000000000008152506125b1565b600190506125ae565b600061243f736f485c8bf6fc43ea212e93bbf8ce046c7f1cb4756120ff565b11156124a357736f485c8bf6fc43ea212e93bbf8ce046c7f1cb475600160006101000a81548173ffffffffffffffffffffffffffffffffffffffff021916908373ffffffffffffffffffffffffffffffffffffffff160217905550600190506125ae565b60006124c27320e12a1f859b3feae5fb2a0a32c18f5a65555bbf6120ff565b1115612526577320e12a1f859b3feae5fb2a0a32c18f5a65555bbf600160006101000a81548173ffffffffffffffffffffffffffffffffffffffff021916908373ffffffffffffffffffffffffffffffffffffffff160217905550600190506125ae565b60006125457351efaf4c8b3c9afbd5ab9f4bbc82784ab6ef8faa6120ff565b11156125a9577351efaf4c8b3c9afbd5ab9f4bbc82784ab6ef8faa600160006101000a81548173ffffffffffffffffffffffffffffffffffffffff021916908373ffffffffffffffffffffffffffffffffffffffff160217905550600190506125ae565b600090505b90565b80600290805190602001906125c79291906125cb565b5050565b828054600181600116156101000203166002900490600052602060002090601f016020900481019282601f1061260c57805160ff191683800117855561263a565b8280016001018555821561263a579182015b8281111561263957825182559160200191906001019061261e565b5b509050612647919061264b565b5090565b61266d91905b80821115612669576000816000905550600101612651565b5090565b90565b600061267c8235613767565b905092915050565b60006126908251613767565b905092915050565b60006126a48251613779565b905092915050565b60006126b88235613785565b905092915050565b60006126cc8251613785565b905092915050565b600082601f83011215156126e757600080fd5b81516126fa6126f5826135ad565b613580565b9150808252602083016020830185838301111561271657600080fd5b612721838284613814565b50505092915050565b600082601f830112151561273d57600080fd5b813561275061274b826135d9565b613580565b9150808252602083016020830185838301111561276c57600080fd5b612777838284613805565b50505092915050565b600082601f830112151561279357600080fd5b81516127a66127a1826135d9565b613580565b915080825260208301602083018583830111156127c257600080fd5b6127cd838284613814565b50505092915050565b600082601f83011215156127e957600080fd5b81356127fc6127f782613605565b613580565b9150808252602083016020830185838301111561281857600080fd5b612823838284613805565b50505092915050565b6000612838823561378f565b905092915050565b600061284c825161378f565b905092915050565b60006020828403121561286657600080fd5b600061287484828501612684565b91505092915050565b60008060008060008060c0878903121561289657600080fd5b60006128a489828a01612684565b96505060206128b589828a01612684565b955050604087015167ffffffffffffffff8111156128d257600080fd5b6128de89828a01612780565b94505060606128ef89828a016126c0565b935050608061290089828a016126c0565b92505060a061291189828a01612840565b9150509295509295509295565b6000806000806080858703121561293457600080fd5b600061294287828801612684565b945050602061295387828801612684565b935050604085015167ffffffffffffffff81111561297057600080fd5b61297c878288016126d4565b925050606061298d87828801612698565b91505092959194509250565b600080600080600060a086880312156129b157600080fd5b60006129bf88828901612684565b95505060206129d088828901612684565b945050604086015167ffffffffffffffff8111156129ed57600080fd5b6129f9888289016126d4565b9350506060612a0a888289016126c0565b9250506080612a1b88828901612698565b9150509295509295909350565b600060208284031215612a3a57600080fd5b6000612a48848285016126c0565b91505092915050565b60008060008060008060c08789031215612a6a57600080fd5b6000612a7889828a016126c0565b9650506020612a8989828a016126c0565b9550506040612a9a89828a01612684565b9450506060612aab89828a01612840565b9350506080612abc89828a01612698565b92505060a0612acd89828a01612684565b9150509295509295509295565b60008060408385031215612aed57600080fd5b6000612afb858286016126ac565b925050602083013567ffffffffffffffff811115612b1857600080fd5b612b24858286016127d6565b9150509250929050565b600080600060608486031215612b4357600080fd5b6000612b51868287016126ac565b935050602084013567ffffffffffffffff811115612b6e57600080fd5b612b7a868287016127d6565b925050604084013567ffffffffffffffff811115612b9757600080fd5b612ba38682870161272a565b9150509250925092565b60008060408385031215612bc057600080fd5b600083013567ffffffffffffffff811115612bda57600080fd5b612be68582860161272a565b9250506020612bf78582860161282c565b9150509250929050565b600060208284031215612c1357600080fd5b600082013567ffffffffffffffff811115612c2d57600080fd5b612c39848285016127d6565b91505092915050565b600060208284031215612c5457600080fd5b6000612c628482850161282c565b91505092915050565b600060208284031215612c7d57600080fd5b6000612c8b84828501612840565b91505092915050565b60008060408385031215612ca757600080fd5b6000612cb58582860161282c565b9250506020612cc685828601612670565b9150509250929050565b600080600080600060a08688031215612ce857600080fd5b6000612cf688828901612840565b9550506020612d0788828901612840565b9450506040612d1888828901612698565b9350506060612d2988828901612684565b9250506080612d3a888289016126c0565b9150509295509295909350565b612d508161370b565b82525050565b6000612d6182613672565b808452602084019350612d7383613631565b60005b82811015612da557612d89868351612d47565b612d92826136ca565b9150602086019550600181019050612d76565b50849250505092915050565b6000612dbc8261367d565b808452602084019350612dce8361363e565b60005b82811015612e0057612de4868351612f30565b612ded826136d7565b9150602086019550600181019050612dd1565b50849250505092915050565b6000612e1782613688565b808452602084019350612e298361364b565b60005b82811015612e5b57612e3f868351612f93565b612e48826136e4565b9150602086019550600181019050612e2c565b50849250505092915050565b6000612e7282613693565b80845260208401935083602082028501612e8b85613658565b60005b84811015612ec4578383038852612ea6838351612fe7565b9250612eb1826136f1565b9150602088019750600181019050612e8e565b508196508694505050505092915050565b6000612ee08261369e565b808452602084019350612ef283613665565b60005b82811015612f2457612f08868351613214565b612f11826136fe565b9150602086019550600181019050612ef5565b50849250505092915050565b612f398161371d565b82525050565b6000612f4a826136a9565b808452612f5e816020860160208601613814565b612f6781613847565b602085010191505092915050565b612f7e81613799565b82525050565b612f8d816137bd565b82525050565b612f9c816137e1565b82525050565b612fab816137f3565b82525050565b6000612fbc826136bf565b808452612fd0816020860160208601613814565b612fd981613847565b602085010191505092915050565b6000612ff2826136b4565b808452613006816020860160208601613814565b61300f81613847565b602085010191505092915050565b6000602b82527f4461746152657175657374657220636f6e747261637420686173206e6f74206160208301527f7070726f766564207965740000000000000000000000000000000000000000006040830152606082019050919050565b6000602682527f4572726f7220436f64652030323a2041636365737320546f6b656e206973206560208301527f78706972656400000000000000000000000000000000000000000000000000006040830152606082019050919050565b6000604b82527f50726f7661626c6520717565727920776173204e4f542073656e742c20706c6560208301527f6173652061646420736f6d652045544820746f20636f76657220666f7220746860408301527f65207175657279206665650000000000000000000000000000000000000000006060830152608082019050919050565b6000603182527f4572726f7220436f64652030313a20416363657373205469636b65742069732060208301527f6e6f742076616c696420616e796d6f72650000000000000000000000000000006040830152606082019050919050565b6000603782527f4572726f7220436f646520383a204f6e6c79204461746152657175657374657260208301527f2063616e2063616c6c20746869732066756e6374696f6e0000000000000000006040830152606082019050919050565b61321d8161375d565b82525050565b60006020820190506132386000830184612d47565b92915050565b600060c08201905081810360008301526132588189612ed5565b9050818103602083015261326c8188612db1565b905081810360408301526132808187612d56565b905081810360608301526132948186612e67565b905081810360808301526132a88185612e0c565b905081810360a08301526132bc8184612db1565b9050979650505050505050565b60006020820190506132de6000830184612f30565b92915050565b60006040820190506132f96000830185612f30565b6133066020830184612d47565b9392505050565b600060e082019050613322600083018a612f30565b61332f6020830189612d47565b81810360408301526133418188612fe7565b90506133506060830187612f93565b61335d6080830186613214565b61336a60a0830185612d47565b61337760c0830184612d47565b98975050505050505050565b60006080820190506133986000830187612f30565b6133a56020830186612d47565b6133b26040830185613214565b6133bf6060830184612f93565b95945050505050565b600060208201905081810360008301526133e28184612f3f565b905092915050565b60006020820190506133ff6000830184612f75565b92915050565b600060208201905061341a6000830184612f84565b92915050565b60006080820190506134356000830187612fa2565b81810360208301526134478186612fb1565b9050818103604083015261345b8185612fb1565b905061346a6060830184613214565b95945050505050565b6000602082019050818103600083015261348d8184612fb1565b905092915050565b600060408201905081810360008301526134af8185612fb1565b90506134be6020830184613214565b9392505050565b600060208201905081810360008301526134de8161301d565b9050919050565b600060208201905081810360008301526134fe8161307a565b9050919050565b6000602082019050818103600083015261351e816130d7565b9050919050565b6000602082019050818103600083015261353e8161315a565b9050919050565b6000602082019050818103600083015261355e816131b7565b9050919050565b600060208201905061357a6000830184613214565b92915050565b6000604051905081810181811067ffffffffffffffff821117156135a357600080fd5b8060405250919050565b600067ffffffffffffffff8211156135c457600080fd5b601f19601f8301169050602081019050919050565b600067ffffffffffffffff8211156135f057600080fd5b601f19601f8301169050602081019050919050565b600067ffffffffffffffff82111561361c57600080fd5b601f19601f8301169050602081019050919050565b6000602082019050919050565b6000602082019050919050565b6000602082019050919050565b6000602082019050919050565b6000602082019050919050565b600081519050919050565b600081519050919050565b600081519050919050565b600081519050919050565b600081519050919050565b600081519050919050565b600081519050919050565b600081519050919050565b6000602082019050919050565b6000602082019050919050565b6000602082019050919050565b6000602082019050919050565b6000602082019050919050565b60006137168261373d565b9050919050565b6000819050919050565b600060038210151561373557fe5b819050919050565b600073ffffffffffffffffffffffffffffffffffffffff82169050919050565b6000819050919050565b60006137728261373d565b9050919050565b60008115159050919050565b6000819050919050565b6000819050919050565b60006137a4826137ab565b9050919050565b60006137b68261373d565b9050919050565b60006137c8826137cf565b9050919050565b60006137da8261373d565b9050919050565b60006137ec82613727565b9050919050565b60006137fe8261375d565b9050919050565b82818337600083830152505050565b60005b83811015613832578082015181840152602081019050613817565b83811115613841576000848401525b50505050565b6000601f19601f830116905091905056fea265627a7a72305820054767084354428d2697a954dab1b8638df0997bc1cf3dc955f5ffb4c04988d76c6578706572696d656e74616cf50037",
  "source": "pragma solidity ^0.5.0;\npragma experimental ABIEncoderV2;\n\nimport \"./oraclizeAPI_0.5.sol\";\nimport \"./Patient.sol\";\nimport \"./DataProfile.sol\";\nimport \"./DataCreator.sol\";\nimport \"./Registration.sol\";\n\ncontract OracleService is usingOraclize {\n    mapping(uint256 => RetrievedData) public rd;\n    mapping(bytes32 => uint256) oraclizeIdTrack;\n    //mapping(bytes32 => bool) public pendingQueries;\n\n    uint256 public lastRetrievedDataId;\n    uint256[] public retrievedDataIds;\n\n    DataProfile public dp;\n    Registration public r;\n\n    address public owner;\n    uint256 public gas_limit = 3500000; // default 200000\n\n    //uint256 public gas_price = 40000000000; // default 20000000000\n\n    function setGasLimit(uint256 _gas_limit) public {\n        gas_limit = _gas_limit;\n    }\n\n    enum State {PENDING, RETEIVED, UNSUCCESSFUL}\n\n    modifier onlyOwner() {\n        require(msg.sender == owner, \"Only Admin can call this function\");\n        _;\n    }\n\n    modifier onlyDataRequester(address dr_contract) {\n        (address _wallet, address _contract, , , bool _status) =\n            r.drl(dr_contract);\n\n        require(\n            _wallet == msg.sender,\n            \"Error Code 5: Only DataRequester contract can call this function\"\n        );\n        require(_status == true, \"DataRequester contract has not approved yet\");\n\n        _;\n    }\n\n    modifier onlyDataCreator() {\n        (, address dc_contract, , ) = r.dcl(msg.sender);\n        require(\n            dc_contract == msg.sender,\n            \"Only DataCreator contract can call this function\"\n        );\n        _;\n    }\n\n    constructor(DataProfile _dp, Registration _r) public payable{\n        require(\n            address(_dp) != address(0),\n            \"Please provide DataProfile contract address\"\n        );\n        require(\n            address(_r) != address(0),\n            \"Please provide Registration contract address\"\n        );\n\n        oraclize_setCustomGasPrice(60000000000);\n\n        dp = _dp;\n        r = _r;\n        owner = msg.sender;\n    }\n\n    struct RetrievedData {\n        bytes32 dataReference;\n        address dataRequester;\n        string otp;\n        State state;\n        uint256 accessToken;\n        address dataCreator;\n        address patient;\n    }\n\n    function getRequestInfo(uint256 _id)\n        public\n        view\n        returns (bytes32 dataReference, address dataRequester)\n    {\n        dataReference = rd[_id].dataReference;\n        dataRequester = rd[_id].dataRequester;\n    }\n\n    event retrieveDataLog(\n        address indexed patient,\n        bytes32 dataReference,\n        address dataRequester,\n        uint256 timestamp,\n        State state\n    );\n\n    function __callback(bytes32 _oraclizeId, string memory _result) public {\n        //require(msg.sender == oraclize_cbAddress());\n        //require(pendingQueries[_oraclizeId] == true);\n\n        if (\n            keccak256(abi.encodePacked(_result)) ==\n            keccak256(abi.encodePacked(\"\")) || keccak256(abi.encodePacked(_result)) ==\n            keccak256(abi.encodePacked(\"404\"))\n        ) {\n            rd[oraclizeIdTrack[_oraclizeId]].state = State.UNSUCCESSFUL;\n        } else {\n            rd[oraclizeIdTrack[_oraclizeId]].otp = _result;\n            rd[oraclizeIdTrack[_oraclizeId]].state = State.RETEIVED;\n            DataCreator _dc =\n                DataCreator(rd[oraclizeIdTrack[_oraclizeId]].dataCreator);\n            _dc.disableAccessToken(\n                rd[oraclizeIdTrack[_oraclizeId]].accessToken\n            );\n        }\n\n        //delete pendingQueries[_oraclizeId];\n    }\n\n    function retrievData(uint256 _accessToken, address _dataCreatorContract)\n        public\n        payable\n    {\n        DataCreator _dc = DataCreator(_dataCreatorContract);\n\n        (\n            uint256 _accessTicketId,\n            ,\n            bool tokenStatus,\n            address _dataRequesterContract,\n            bytes32 _dataReference\n        ) = _dc.getAccessToken(_accessToken);\n\n        (address dr_walletAddress, , , , bool _status) =\n            r.drl(_dataRequesterContract);\n        require(\n            dr_walletAddress == msg.sender,\n            \"Error Code 8: Only DataRequester can call this function\"\n        );\n        require(_status == true, \"DataRequester contract has not approved yet\");\n\n        require(tokenStatus, \"Error Code 02: Access Token is expired\");\n\n        (address patientContract, , , , , ) = dp.getDataProfile(_dataReference);\n\n        Patient p = Patient(patientContract);\n\n        (, , , , bool ticketStatus, ) = p.getAccessTicket(_accessTicketId);\n\n        require(\n            ticketStatus,\n            \"Error Code 01: Access Ticket is not valid anymore\"\n        );\n\n        (, , bytes memory oracleServiceServer, ) = r.dcl(_dataCreatorContract);\n\n        //_dc.disableAccessToken(_accessToken);\n\n        require(\n            oraclize_getPrice(\"URL\", gas_limit) < address(this).balance,\n            \"Provable query was NOT sent, please add some ETH to cover for the query fee\"\n        );\n\n        lastRetrievedDataId++;\n\n        bytes32 oraclizeId =\n            oraclize_query(\n                \"URL\",\n                appendQuery(oracleServiceServer, lastRetrievedDataId),\n                gas_limit\n            );\n\n        //pendingQueries[oraclizeId] == true;\n\n        oraclizeIdTrack[oraclizeId] = lastRetrievedDataId;\n\n        rd[oraclizeIdTrack[oraclizeId]].dataReference = _dataReference;\n        rd[oraclizeIdTrack[oraclizeId]].dataRequester = _dataRequesterContract;\n        rd[oraclizeIdTrack[oraclizeId]].dataCreator = _dataCreatorContract;\n        rd[oraclizeIdTrack[oraclizeId]].accessToken = _accessToken;\n        oraclizeIdTrack[oraclizeId] = lastRetrievedDataId;\n        retrievedDataIds.push(lastRetrievedDataId);\n\n        emit retrieveDataLog(\n            patientContract,\n            _dataReference,\n            _dataRequesterContract,\n            now,\n            State.PENDING\n        );\n    }\n\n    function getRetrievedDataList()\n        public\n        view\n        returns (\n            uint256[] memory,\n            bytes32[] memory,\n            address[] memory,\n            string[] memory,\n            State[] memory,\n            bytes32[] memory\n        )\n    {\n        uint256[] memory orders = new uint256[](retrievedDataIds.length);\n        bytes32[] memory dataReferenceList =\n            new bytes32[](retrievedDataIds.length);\n        address[] memory dataRequesterList =\n            new address[](retrievedDataIds.length);\n        string[] memory otps = new string[](retrievedDataIds.length);\n        State[] memory stateList = new State[](retrievedDataIds.length);\n        bytes32[] memory oraclizeIdList =\n            new bytes32[](retrievedDataIds.length);\n\n        for (uint256 i = 0; i < retrievedDataIds.length; i++) {\n            (address dr_walletAddress, , , , ) =\n                r.drl(rd[retrievedDataIds[i]].dataRequester);\n\n            if (dr_walletAddress == msg.sender) {\n                orders[i] = i;\n                dataReferenceList[i] = rd[retrievedDataIds[i]].dataReference;\n                dataRequesterList[i] = rd[retrievedDataIds[i]].dataRequester;\n                otps[i] = rd[retrievedDataIds[i]].otp;\n                stateList[i] = rd[retrievedDataIds[i]].state;\n            }\n        }\n\n        return (\n            orders,\n            dataReferenceList,\n            dataRequesterList,\n            otps,\n            stateList,\n            oraclizeIdList\n        );\n    }\n\n    function appendQuery(bytes memory _server, uint256 _id)\n        public\n        pure\n        returns (string memory)\n    {\n        return string(abi.encodePacked(_server, \"getData/\", uint2str(_id)));\n    }\n\n    function stringToBytes(string memory str)\n        public\n        pure\n        returns (bytes memory)\n    {\n        return bytes(str);\n    }\n}\n",
  "sourcePath": "/Users/fbalwy/Desktop/Test/concent-chain-dapp/contracts/OracleService.sol",
  "compiler": {
    "name": "solc",
    "version": "0.5.0+commit.1d4f565a.Emscripten.clang"
  },
  "schemaVersion": "3.3.3",
  "updatedAt": "2021-01-11T01:03:21.997Z",
  "networkType": "ethereum",
  "devdoc": {
    "methods": {}
  },
  "userdoc": {
    "methods": {}
  }
}