{
  "contractName": "Registration",
  "abi": [
    {
      "constant": true,
      "inputs": [
        {
          "name": "",
          "type": "address"
        }
      ],
      "name": "dcl",
      "outputs": [
        {
          "name": "walletAddress",
          "type": "address"
        },
        {
          "name": "contractAddress",
          "type": "address"
        },
        {
          "name": "oracleServiceServer",
          "type": "bytes"
        },
        {
          "name": "approved",
          "type": "bool"
        }
      ],
      "payable": false,
      "stateMutability": "view",
      "type": "function"
    },
    {
      "constant": true,
      "inputs": [
        {
          "name": "",
          "type": "address"
        }
      ],
      "name": "pl",
      "outputs": [
        {
          "name": "walletAddress",
          "type": "address"
        },
        {
          "name": "contractAddress",
          "type": "address"
        },
        {
          "name": "approved",
          "type": "bool"
        }
      ],
      "payable": false,
      "stateMutability": "view",
      "type": "function"
    },
    {
      "constant": true,
      "inputs": [],
      "name": "owner",
      "outputs": [
        {
          "name": "",
          "type": "address"
        }
      ],
      "payable": false,
      "stateMutability": "view",
      "type": "function"
    },
    {
      "constant": true,
      "inputs": [],
      "name": "dp",
      "outputs": [
        {
          "name": "",
          "type": "address"
        }
      ],
      "payable": false,
      "stateMutability": "view",
      "type": "function"
    },
    {
      "constant": true,
      "inputs": [],
      "name": "p",
      "outputs": [
        {
          "name": "",
          "type": "address"
        }
      ],
      "payable": false,
      "stateMutability": "view",
      "type": "function"
    },
    {
      "constant": true,
      "inputs": [],
      "name": "dr",
      "outputs": [
        {
          "name": "",
          "type": "address"
        }
      ],
      "payable": false,
      "stateMutability": "view",
      "type": "function"
    },
    {
      "constant": true,
      "inputs": [],
      "name": "os",
      "outputs": [
        {
          "name": "",
          "type": "address"
        }
      ],
      "payable": false,
      "stateMutability": "view",
      "type": "function"
    },
    {
      "constant": true,
      "inputs": [],
      "name": "dc",
      "outputs": [
        {
          "name": "",
          "type": "address"
        }
      ],
      "payable": false,
      "stateMutability": "view",
      "type": "function"
    },
    {
      "constant": true,
      "inputs": [
        {
          "name": "",
          "type": "address"
        }
      ],
      "name": "drl",
      "outputs": [
        {
          "name": "walletAddress",
          "type": "address"
        },
        {
          "name": "contractAddress",
          "type": "address"
        },
        {
          "name": "publicKeyIpfsRef",
          "type": "bytes"
        },
        {
          "name": "role",
          "type": "bytes32"
        },
        {
          "name": "approved",
          "type": "bool"
        }
      ],
      "payable": false,
      "stateMutability": "view",
      "type": "function"
    },
    {
      "constant": true,
      "inputs": [],
      "name": "contractAddress",
      "outputs": [
        {
          "name": "",
          "type": "address"
        }
      ],
      "payable": false,
      "stateMutability": "view",
      "type": "function"
    },
    {
      "inputs": [],
      "payable": false,
      "stateMutability": "nonpayable",
      "type": "constructor"
    },
    {
      "anonymous": false,
      "inputs": [
        {
          "indexed": true,
          "name": "_dataRequestorContractAddress",
          "type": "address"
        },
        {
          "indexed": true,
          "name": "_dataRequesterWalletAddress",
          "type": "address"
        },
        {
          "indexed": false,
          "name": "_publicKeyIpfsRef",
          "type": "bytes"
        },
        {
          "indexed": false,
          "name": "_role",
          "type": "bytes32"
        }
      ],
      "name": "setDataRequesterInfoLog",
      "type": "event"
    },
    {
      "anonymous": false,
      "inputs": [
        {
          "indexed": true,
          "name": "_patientContractAddress",
          "type": "address"
        },
        {
          "indexed": true,
          "name": "_patientWalletAddress",
          "type": "address"
        }
      ],
      "name": "setPatientInfoLog",
      "type": "event"
    },
    {
      "anonymous": false,
      "inputs": [
        {
          "indexed": true,
          "name": "_dataCreatorContractAddress",
          "type": "address"
        },
        {
          "indexed": true,
          "name": "_dataCreatorWalletAddress",
          "type": "address"
        },
        {
          "indexed": false,
          "name": "_oracleServiceServer",
          "type": "bytes"
        },
        {
          "indexed": false,
          "name": "thiscontract",
          "type": "address"
        }
      ],
      "name": "setDataCreatorInfoLog",
      "type": "event"
    },
    {
      "anonymous": false,
      "inputs": [
        {
          "indexed": false,
          "name": "OracleService",
          "type": "address"
        },
        {
          "indexed": false,
          "name": "DataProfile",
          "type": "address"
        }
      ],
      "name": "setupSystemContractsLog",
      "type": "event"
    },
    {
      "anonymous": false,
      "inputs": [
        {
          "indexed": false,
          "name": "_publicKeyIpfsRef",
          "type": "bytes"
        }
      ],
      "name": "updateDataRequesterPublicKeyLog",
      "type": "event"
    },
    {
      "anonymous": false,
      "inputs": [
        {
          "indexed": false,
          "name": "_oracleServiceServer",
          "type": "bytes"
        }
      ],
      "name": "updateOracleServiceServerLog",
      "type": "event"
    },
    {
      "anonymous": false,
      "inputs": [
        {
          "indexed": true,
          "name": "_contract",
          "type": "address"
        },
        {
          "indexed": false,
          "name": "_approved",
          "type": "bool"
        }
      ],
      "name": "approveDataCreatorLog",
      "type": "event"
    },
    {
      "anonymous": false,
      "inputs": [
        {
          "indexed": true,
          "name": "_contract",
          "type": "address"
        },
        {
          "indexed": false,
          "name": "_approved",
          "type": "bool"
        }
      ],
      "name": "approvePatientLog",
      "type": "event"
    },
    {
      "anonymous": false,
      "inputs": [
        {
          "indexed": true,
          "name": "_contract",
          "type": "address"
        },
        {
          "indexed": false,
          "name": "_approved",
          "type": "bool"
        }
      ],
      "name": "approveDataRequesterLog",
      "type": "event"
    },
    {
      "constant": false,
      "inputs": [
        {
          "name": "_dc",
          "type": "address"
        }
      ],
      "name": "approveDataCreator",
      "outputs": [],
      "payable": false,
      "stateMutability": "nonpayable",
      "type": "function"
    },
    {
      "constant": false,
      "inputs": [
        {
          "name": "_p",
          "type": "address"
        }
      ],
      "name": "approvePatient",
      "outputs": [],
      "payable": false,
      "stateMutability": "nonpayable",
      "type": "function"
    },
    {
      "constant": false,
      "inputs": [
        {
          "name": "_dr",
          "type": "address"
        }
      ],
      "name": "approveDataRequester",
      "outputs": [],
      "payable": false,
      "stateMutability": "nonpayable",
      "type": "function"
    },
    {
      "constant": false,
      "inputs": [
        {
          "name": "_os",
          "type": "address"
        },
        {
          "name": "_dp",
          "type": "address"
        }
      ],
      "name": "setupSystemContracts",
      "outputs": [],
      "payable": false,
      "stateMutability": "nonpayable",
      "type": "function"
    },
    {
      "constant": false,
      "inputs": [
        {
          "name": "_dataCreatoraWalletAddress",
          "type": "address"
        },
        {
          "name": "_oracleServiceServer",
          "type": "bytes"
        }
      ],
      "name": "setDataCreatorInfo",
      "outputs": [],
      "payable": false,
      "stateMutability": "nonpayable",
      "type": "function"
    },
    {
      "constant": false,
      "inputs": [
        {
          "name": "_patientWalletAddress",
          "type": "address"
        }
      ],
      "name": "setPatientInfo",
      "outputs": [],
      "payable": false,
      "stateMutability": "nonpayable",
      "type": "function"
    },
    {
      "constant": false,
      "inputs": [
        {
          "name": "_dataRequesterWalletAddress",
          "type": "address"
        },
        {
          "name": "_publicKeyIpfsRef",
          "type": "bytes"
        },
        {
          "name": "_role",
          "type": "bytes32"
        }
      ],
      "name": "setDataRequesterInfo",
      "outputs": [],
      "payable": false,
      "stateMutability": "nonpayable",
      "type": "function"
    },
    {
      "constant": true,
      "inputs": [
        {
          "name": "_dataRequesterContract",
          "type": "address"
        }
      ],
      "name": "getDataRequesterInfo",
      "outputs": [
        {
          "name": "_publicKeyIpfsRef",
          "type": "bytes"
        },
        {
          "name": "_role",
          "type": "bytes32"
        }
      ],
      "payable": false,
      "stateMutability": "view",
      "type": "function"
    },
    {
      "constant": false,
      "inputs": [
        {
          "name": "_publicKeyIpfsRef",
          "type": "bytes"
        }
      ],
      "name": "updateDataRequesterPublicKey",
      "outputs": [],
      "payable": false,
      "stateMutability": "nonpayable",
      "type": "function"
    },
    {
      "constant": false,
      "inputs": [
        {
          "name": "_oracleServiceServer",
          "type": "bytes"
        }
      ],
      "name": "updateOracleServiceServer",
      "outputs": [],
      "payable": false,
      "stateMutability": "nonpayable",
      "type": "function"
    }
  ],
  "bytecode": "0x608060405234801561001057600080fd5b5033600860006101000a81548173ffffffffffffffffffffffffffffffffffffffff021916908373ffffffffffffffffffffffffffffffffffffffff16021790555030600960006101000a81548173ffffffffffffffffffffffffffffffffffffffff021916908373ffffffffffffffffffffffffffffffffffffffff1602179055506129de806100a26000396000f3fe608060405260043610610112576000357c0100000000000000000000000000000000000000000000000000000000900463ffffffff168063206426e71461011757806329d66ff1146101e85780634eea770a146102395780636e8599dc146103015780637509807d146103a75780637ec61e96146103f857806382f9e540146105335780638481fe5e146106255780638b01dfc8146106f45780638da5cb5b1461074557806393eb049d1461079c5780639ae8886a146107f3578063a469eb111461084a578063b5ad3c26146108a1578063b74804f9146108f2578063d62202fb14610963578063d8a531a6146109ba578063dd523de914610a11578063f2cb863214610ad9578063f6b4dfb414610c1b575b600080fd5b34801561012357600080fd5b506101666004803603602081101561013a57600080fd5b81019080803573ffffffffffffffffffffffffffffffffffffffff169060200190929190505050610c72565b6040518080602001838152602001828103825284818151815260200191508051906020019080838360005b838110156101ac578082015181840152602081019050610191565b50505050905090810190601f1680156101d95780820380516001836020036101000a031916815260200191505b50935050505060405180910390f35b3480156101f457600080fd5b506102376004803603602081101561020b57600080fd5b81019080803573ffffffffffffffffffffffffffffffffffffffff169060200190929190505050610d9b565b005b34801561024557600080fd5b506102ff6004803603602081101561025c57600080fd5b810190808035906020019064010000000081111561027957600080fd5b82018360208201111561028b57600080fd5b803590602001918460018302840111640100000000831117156102ad57600080fd5b91908080601f016020809104026020016040519081016040528093929190818152602001838380828437600081840152601f19601f820116905080830192505050505050509192919290505050610ffb565b005b34801561030d57600080fd5b506103a56004803603604081101561032457600080fd5b81019080803573ffffffffffffffffffffffffffffffffffffffff1690602001909291908035906020019064010000000081111561036157600080fd5b82018360208201111561037357600080fd5b8035906020019184600183028401116401000000008311171561039557600080fd5b90919293919293905050506113c8565b005b3480156103b357600080fd5b506103f6600480360360208110156103ca57600080fd5b81019080803573ffffffffffffffffffffffffffffffffffffffff1690602001909291905050506115e6565b005b34801561040457600080fd5b506104476004803603602081101561041b57600080fd5b81019080803573ffffffffffffffffffffffffffffffffffffffff169060200190929190505050611847565b604051808573ffffffffffffffffffffffffffffffffffffffff1673ffffffffffffffffffffffffffffffffffffffff1681526020018473ffffffffffffffffffffffffffffffffffffffff1673ffffffffffffffffffffffffffffffffffffffff1681526020018060200183151515158152602001828103825284818151815260200191508051906020019080838360005b838110156104f55780820151818401526020810190506104da565b50505050905090810190601f1680156105225780820380516001836020036101000a031916815260200191505b509550505050505060405180910390f35b34801561053f57600080fd5b506106236004803603606081101561055657600080fd5b81019080803573ffffffffffffffffffffffffffffffffffffffff1690602001909291908035906020019064010000000081111561059357600080fd5b8201836020820111156105a557600080fd5b803590602001918460018302840111640100000000831117156105c757600080fd5b91908080601f016020809104026020016040519081016040528093929190818152602001838380828437600081840152601f19601f8201169050808301925050505050505091929192908035906020019092919050505061195c565b005b34801561063157600080fd5b506106746004803603602081101561064857600080fd5b81019080803573ffffffffffffffffffffffffffffffffffffffff169060200190929190505050611bcf565b604051808473ffffffffffffffffffffffffffffffffffffffff1673ffffffffffffffffffffffffffffffffffffffff1681526020018373ffffffffffffffffffffffffffffffffffffffff1673ffffffffffffffffffffffffffffffffffffffff16815260200182151515158152602001935050505060405180910390f35b34801561070057600080fd5b506107436004803603602081101561071757600080fd5b81019080803573ffffffffffffffffffffffffffffffffffffffff169060200190929190505050611c46565b005b34801561075157600080fd5b5061075a611ea5565b604051808273ffffffffffffffffffffffffffffffffffffffff1673ffffffffffffffffffffffffffffffffffffffff16815260200191505060405180910390f35b3480156107a857600080fd5b506107b1611ecb565b604051808273ffffffffffffffffffffffffffffffffffffffff1673ffffffffffffffffffffffffffffffffffffffff16815260200191505060405180910390f35b3480156107ff57600080fd5b50610808611ef1565b604051808273ffffffffffffffffffffffffffffffffffffffff1673ffffffffffffffffffffffffffffffffffffffff16815260200191505060405180910390f35b34801561085657600080fd5b5061085f611f17565b604051808273ffffffffffffffffffffffffffffffffffffffff1673ffffffffffffffffffffffffffffffffffffffff16815260200191505060405180910390f35b3480156108ad57600080fd5b506108f0600480360360208110156108c457600080fd5b81019080803573ffffffffffffffffffffffffffffffffffffffff169060200190929190505050611f3d565b005b3480156108fe57600080fd5b506109616004803603604081101561091557600080fd5b81019080803573ffffffffffffffffffffffffffffffffffffffff169060200190929190803573ffffffffffffffffffffffffffffffffffffffff16906020019092919050505061209c565b005b34801561096f57600080fd5b5061097861235d565b604051808273ffffffffffffffffffffffffffffffffffffffff1673ffffffffffffffffffffffffffffffffffffffff16815260200191505060405180910390f35b3480156109c657600080fd5b506109cf612383565b604051808273ffffffffffffffffffffffffffffffffffffffff1673ffffffffffffffffffffffffffffffffffffffff16815260200191505060405180910390f35b348015610a1d57600080fd5b50610ad760048036036020811015610a3457600080fd5b8101908080359060200190640100000000811115610a5157600080fd5b820183602082011115610a6357600080fd5b80359060200191846001830284011164010000000083111715610a8557600080fd5b91908080601f016020809104026020016040519081016040528093929190818152602001838380828437600081840152601f19601f8201169050808301925050505050505091929192905050506123a9565b005b348015610ae557600080fd5b50610b2860048036036020811015610afc57600080fd5b81019080803573ffffffffffffffffffffffffffffffffffffffff16906020019092919050505061274c565b604051808673ffffffffffffffffffffffffffffffffffffffff1673ffffffffffffffffffffffffffffffffffffffff1681526020018573ffffffffffffffffffffffffffffffffffffffff1673ffffffffffffffffffffffffffffffffffffffff1681526020018060200184815260200183151515158152602001828103825285818151815260200191508051906020019080838360005b83811015610bdc578082015181840152602081019050610bc1565b50505050905090810190601f168015610c095780820380516001836020036101000a031916815260200191505b50965050505050505060405180910390f35b348015610c2757600080fd5b50610c30612867565b604051808273ffffffffffffffffffffffffffffffffffffffff1673ffffffffffffffffffffffffffffffffffffffff16815260200191505060405180910390f35b606060008060008473ffffffffffffffffffffffffffffffffffffffff1673ffffffffffffffffffffffffffffffffffffffff1681526020019081526020016000206002018054600181600116156101000203166002900480601f016020809104026020016040519081016040528092919081815260200182805460018160011615610100020316600290048015610d4b5780601f10610d2057610100808354040283529160200191610d4b565b820191906000526020600020905b815481529060010190602001808311610d2e57829003601f168201915b505050505091506000808473ffffffffffffffffffffffffffffffffffffffff1673ffffffffffffffffffffffffffffffffffffffff168152602001908152602001600020600301549050915091565b600860009054906101000a900473ffffffffffffffffffffffffffffffffffffffff1673ffffffffffffffffffffffffffffffffffffffff163373ffffffffffffffffffffffffffffffffffffffff16141515610e86576040517f08c379a00000000000000000000000000000000000000000000000000000000081526004018080602001828103825260218152602001807f4f6e6c792061646d696e2063616e2063616c6c20746869732066756e6374696f81526020017f6e0000000000000000000000000000000000000000000000000000000000000081525060400191505060405180910390fd5b600160008273ffffffffffffffffffffffffffffffffffffffff1673ffffffffffffffffffffffffffffffffffffffff16815260200190815260200160002060030160009054906101000a900460ff16151515610f4b576040517f08c379a000000000000000000000000000000000000000000000000000000000815260040180806020018281038252601e8152602001807f4461746143726561746f7220697320616c7261647920617070726f766564000081525060200191505060405180910390fd5b60018060008373ffffffffffffffffffffffffffffffffffffffff1673ffffffffffffffffffffffffffffffffffffffff16815260200190815260200160002060030160006101000a81548160ff0219169083151502179055508073ffffffffffffffffffffffffffffffffffffffff167f706a630c068b0bc27f88093795c7f25869033b2db796d9ad2491a722c396f8346001604051808215151515815260200191505060405180910390a250565b3373ffffffffffffffffffffffffffffffffffffffff16600160003373ffffffffffffffffffffffffffffffffffffffff1673ffffffffffffffffffffffffffffffffffffffff16815260200190815260200160002060010160009054906101000a900473ffffffffffffffffffffffffffffffffffffffff1673ffffffffffffffffffffffffffffffffffffffff16141515611126576040517f08c379a00000000000000000000000000000000000000000000000000000000081526004018080602001828103825260308152602001807f4f6e6c79204461746143726561746f7220636f6e74726163742063616e20636181526020017f6c6c20746869732066756e6374696f6e0000000000000000000000000000000081525060400191505060405180910390fd5b8080519060200120600160003373ffffffffffffffffffffffffffffffffffffffff1673ffffffffffffffffffffffffffffffffffffffff16815260200190815260200160002060020160405180828054600181600116156101000203166002900480156111cb5780601f106111a95761010080835404028352918201916111cb565b820191906000526020600020905b8154815290600101906020018083116111b7575b5050915050604051809103902014151515611274576040517f08c379a00000000000000000000000000000000000000000000000000000000081526004018080602001828103825260268152602001807f4f7261636c65205365727669636520536572766572206164647265737320697381526020017f206578697374000000000000000000000000000000000000000000000000000081525060400191505060405180910390fd5b80600160003373ffffffffffffffffffffffffffffffffffffffff1673ffffffffffffffffffffffffffffffffffffffff16815260200190815260200160002060020190805190602001906112ca92919061288d565b507f08192e348ea30cc1e0ecc6c3a7e4b565ecb21ea2c54d7b532fc66434622e038c600160003373ffffffffffffffffffffffffffffffffffffffff1673ffffffffffffffffffffffffffffffffffffffff16815260200190815260200160002060020160405180806020018281038252838181546001816001161561010002031660029004815260200191508054600181600116156101000203166002900480156113b75780601f1061138c576101008083540402835291602001916113b7565b820191906000526020600020905b81548152906001019060200180831161139a57829003601f168201915b50509250505060405180910390a150565b82600160003373ffffffffffffffffffffffffffffffffffffffff1673ffffffffffffffffffffffffffffffffffffffff16815260200190815260200160002060000160006101000a81548173ffffffffffffffffffffffffffffffffffffffff021916908373ffffffffffffffffffffffffffffffffffffffff16021790555033600160003373ffffffffffffffffffffffffffffffffffffffff1673ffffffffffffffffffffffffffffffffffffffff16815260200190815260200160002060010160006101000a81548173ffffffffffffffffffffffffffffffffffffffff021916908373ffffffffffffffffffffffffffffffffffffffff1602179055508181600160003373ffffffffffffffffffffffffffffffffffffffff1673ffffffffffffffffffffffffffffffffffffffff168152602001908152602001600020600201919061151b92919061290d565b508273ffffffffffffffffffffffffffffffffffffffff163373ffffffffffffffffffffffffffffffffffffffff167ff7522aa9637705dd3dfe93b6d0ad44a724f96d95d712e07fbb265fcd3dceb79084843060405180806020018373ffffffffffffffffffffffffffffffffffffffff1673ffffffffffffffffffffffffffffffffffffffff1681526020018281038252858582818152602001925080828437600081840152601f19601f82011690508083019250505094505050505060405180910390a3505050565b600860009054906101000a900473ffffffffffffffffffffffffffffffffffffffff1673ffffffffffffffffffffffffffffffffffffffff163373ffffffffffffffffffffffffffffffffffffffff161415156116d1576040517f08c379a00000000000000000000000000000000000000000000000000000000081526004018080602001828103825260218152602001807f4f6e6c792061646d696e2063616e2063616c6c20746869732066756e6374696f81526020017f6e0000000000000000000000000000000000000000000000000000000000000081525060400191505060405180910390fd5b600260008273ffffffffffffffffffffffffffffffffffffffff1673ffffffffffffffffffffffffffffffffffffffff16815260200190815260200160002060010160149054906101000a900460ff16151515611796576040517f08c379a000000000000000000000000000000000000000000000000000000000815260040180806020018281038252601a8152602001807f50617469656e7420697320616c7261647920617070726f76656400000000000081525060200191505060405180910390fd5b6001600260008373ffffffffffffffffffffffffffffffffffffffff1673ffffffffffffffffffffffffffffffffffffffff16815260200190815260200160002060010160146101000a81548160ff0219169083151502179055508073ffffffffffffffffffffffffffffffffffffffff167fd88c570ea7322614b2f84664c72daaf369f26965b1790da642fd8d464b2f7d2c6001604051808215151515815260200191505060405180910390a250565b60016020528060005260406000206000915090508060000160009054906101000a900473ffffffffffffffffffffffffffffffffffffffff16908060010160009054906101000a900473ffffffffffffffffffffffffffffffffffffffff1690806002018054600181600116156101000203166002900480601f01602080910402602001604051908101604052809291908181526020018280546001816001161561010002031660029004801561193f5780601f106119145761010080835404028352916020019161193f565b820191906000526020600020905b81548152906001019060200180831161192257829003601f168201915b5050505050908060030160009054906101000a900460ff16905084565b826000803373ffffffffffffffffffffffffffffffffffffffff1673ffffffffffffffffffffffffffffffffffffffff16815260200190815260200160002060000160006101000a81548173ffffffffffffffffffffffffffffffffffffffff021916908373ffffffffffffffffffffffffffffffffffffffff160217905550336000803373ffffffffffffffffffffffffffffffffffffffff1673ffffffffffffffffffffffffffffffffffffffff16815260200190815260200160002060010160006101000a81548173ffffffffffffffffffffffffffffffffffffffff021916908373ffffffffffffffffffffffffffffffffffffffff160217905550816000803373ffffffffffffffffffffffffffffffffffffffff1673ffffffffffffffffffffffffffffffffffffffff1681526020019081526020016000206002019080519060200190611ab192919061288d565b50806000803373ffffffffffffffffffffffffffffffffffffffff1673ffffffffffffffffffffffffffffffffffffffff168152602001908152602001600020600301819055508273ffffffffffffffffffffffffffffffffffffffff163373ffffffffffffffffffffffffffffffffffffffff167fdd21c25a7261113c8dfbc9eea982bd10e45b719adf00229fd31a31cb1f0c4f1084846040518080602001838152602001828103825284818151815260200191508051906020019080838360005b83811015611b8f578082015181840152602081019050611b74565b50505050905090810190601f168015611bbc5780820380516001836020036101000a031916815260200191505b50935050505060405180910390a3505050565b60026020528060005260406000206000915090508060000160009054906101000a900473ffffffffffffffffffffffffffffffffffffffff16908060010160009054906101000a900473ffffffffffffffffffffffffffffffffffffffff16908060010160149054906101000a900460ff16905083565b600860009054906101000a900473ffffffffffffffffffffffffffffffffffffffff1673ffffffffffffffffffffffffffffffffffffffff163373ffffffffffffffffffffffffffffffffffffffff16141515611d31576040517f08c379a00000000000000000000000000000000000000000000000000000000081526004018080602001828103825260218152602001807f4f6e6c792061646d696e2063616e2063616c6c20746869732066756e6374696f81526020017f6e0000000000000000000000000000000000000000000000000000000000000081525060400191505060405180910390fd5b6000808273ffffffffffffffffffffffffffffffffffffffff1673ffffffffffffffffffffffffffffffffffffffff16815260200190815260200160002060040160009054906101000a900460ff16151515611df5576040517f08c379a00000000000000000000000000000000000000000000000000000000081526004018080602001828103825260208152602001807f4461746152657175657374657220697320616c7261647920617070726f76656481525060200191505060405180910390fd5b60016000808373ffffffffffffffffffffffffffffffffffffffff1673ffffffffffffffffffffffffffffffffffffffff16815260200190815260200160002060040160006101000a81548160ff0219169083151502179055508073ffffffffffffffffffffffffffffffffffffffff167facfb823d11c026f3c5f2357d45adb3cac6bed32d22b0a63f1072fc734205b74d6001604051808215151515815260200191505060405180910390a250565b600860009054906101000a900473ffffffffffffffffffffffffffffffffffffffff1681565b600760009054906101000a900473ffffffffffffffffffffffffffffffffffffffff1681565b600560009054906101000a900473ffffffffffffffffffffffffffffffffffffffff1681565b600460009054906101000a900473ffffffffffffffffffffffffffffffffffffffff1681565b80600260003373ffffffffffffffffffffffffffffffffffffffff1673ffffffffffffffffffffffffffffffffffffffff16815260200190815260200160002060000160006101000a81548173ffffffffffffffffffffffffffffffffffffffff021916908373ffffffffffffffffffffffffffffffffffffffff16021790555033600260003373ffffffffffffffffffffffffffffffffffffffff1673ffffffffffffffffffffffffffffffffffffffff16815260200190815260200160002060010160006101000a81548173ffffffffffffffffffffffffffffffffffffffff021916908373ffffffffffffffffffffffffffffffffffffffff1602179055508073ffffffffffffffffffffffffffffffffffffffff163373ffffffffffffffffffffffffffffffffffffffff167f3319c96eaa7d54856c660fca65404802e14f4cb8abb4c9fcac7adf10e9ad39a960405160405180910390a350565b600860009054906101000a900473ffffffffffffffffffffffffffffffffffffffff1673ffffffffffffffffffffffffffffffffffffffff163373ffffffffffffffffffffffffffffffffffffffff16141515612187576040517f08c379a00000000000000000000000000000000000000000000000000000000081526004018080602001828103825260218152602001807f4f6e6c792061646d696e2063616e2063616c6c20746869732066756e6374696f81526020017f6e0000000000000000000000000000000000000000000000000000000000000081525060400191505060405180910390fd5b600073ffffffffffffffffffffffffffffffffffffffff168273ffffffffffffffffffffffffffffffffffffffff16141580156121f15750600073ffffffffffffffffffffffffffffffffffffffff168173ffffffffffffffffffffffffffffffffffffffff1614155b15156121fc57600080fd5b81600660006101000a81548173ffffffffffffffffffffffffffffffffffffffff021916908373ffffffffffffffffffffffffffffffffffffffff16021790555080600760006101000a81548173ffffffffffffffffffffffffffffffffffffffff021916908373ffffffffffffffffffffffffffffffffffffffff1602179055507f4576a97896f9c39767f86b5232093f4b3a55069e6cd0cd39c61ce335dd4ee06b600660009054906101000a900473ffffffffffffffffffffffffffffffffffffffff16600760009054906101000a900473ffffffffffffffffffffffffffffffffffffffff16604051808373ffffffffffffffffffffffffffffffffffffffff1673ffffffffffffffffffffffffffffffffffffffff1681526020018273ffffffffffffffffffffffffffffffffffffffff1673ffffffffffffffffffffffffffffffffffffffff1681526020019250505060405180910390a15050565b600660009054906101000a900473ffffffffffffffffffffffffffffffffffffffff1681565b600360009054906101000a900473ffffffffffffffffffffffffffffffffffffffff1681565b3373ffffffffffffffffffffffffffffffffffffffff166000803373ffffffffffffffffffffffffffffffffffffffff1673ffffffffffffffffffffffffffffffffffffffff16815260200190815260200160002060010160009054906101000a900473ffffffffffffffffffffffffffffffffffffffff1673ffffffffffffffffffffffffffffffffffffffff161415156124d3576040517f08c379a00000000000000000000000000000000000000000000000000000000081526004018080602001828103825260328152602001807f4f6e6c79204461746152657175657374657220636f6e74726163742063616e2081526020017f63616c6c20746869732066756e6374696f6e000000000000000000000000000081525060400191505060405180910390fd5b80805190602001206000803373ffffffffffffffffffffffffffffffffffffffff1673ffffffffffffffffffffffffffffffffffffffff16815260200190815260200160002060020160405180828054600181600116156101000203166002900480156125775780601f10612555576101008083540402835291820191612577565b820191906000526020600020905b815481529060010190602001808311612563575b50509150506040518091039020141515156125fa576040517f08c379a00000000000000000000000000000000000000000000000000000000081526004018080602001828103825260138152602001807f5075626c6963206b65792069732065786973740000000000000000000000000081525060200191505060405180910390fd5b806000803373ffffffffffffffffffffffffffffffffffffffff1673ffffffffffffffffffffffffffffffffffffffff168152602001908152602001600020600201908051906020019061264f92919061288d565b507f36b7a4d448b222b45a89591f46f309b7063ba163350ae7cde364ab9c4e92430e6000803373ffffffffffffffffffffffffffffffffffffffff1673ffffffffffffffffffffffffffffffffffffffff168152602001908152602001600020600201604051808060200182810382528381815460018160011615610100020316600290048152602001915080546001816001161561010002031660029004801561273b5780601f106127105761010080835404028352916020019161273b565b820191906000526020600020905b81548152906001019060200180831161271e57829003601f168201915b50509250505060405180910390a150565b60006020528060005260406000206000915090508060000160009054906101000a900473ffffffffffffffffffffffffffffffffffffffff16908060010160009054906101000a900473ffffffffffffffffffffffffffffffffffffffff1690806002018054600181600116156101000203166002900480601f0160208091040260200160405190810160405280929190818152602001828054600181600116156101000203166002900480156128445780601f1061281957610100808354040283529160200191612844565b820191906000526020600020905b81548152906001019060200180831161282757829003601f168201915b5050505050908060030154908060040160009054906101000a900460ff16905085565b600960009054906101000a900473ffffffffffffffffffffffffffffffffffffffff1681565b828054600181600116156101000203166002900490600052602060002090601f016020900481019282601f106128ce57805160ff19168380011785556128fc565b828001600101855582156128fc579182015b828111156128fb5782518255916020019190600101906128e0565b5b509050612909919061298d565b5090565b828054600181600116156101000203166002900490600052602060002090601f016020900481019282601f1061294e57803560ff191683800117855561297c565b8280016001018555821561297c579182015b8281111561297b578235825591602001919060010190612960565b5b509050612989919061298d565b5090565b6129af91905b808211156129ab576000816000905550600101612993565b5090565b9056fea165627a7a7230582049c6d494b54cdce0a4cde8c9ad2002022e65f3a3b1a7260b62bb4bf012dee6a00029",
  "source": "pragma solidity ^0.5.0;\n\nimport \"./Patient.sol\";\nimport \"./DataRequester.sol\";\nimport \"./DataCreator.sol\";\nimport \"./OracleService.sol\";\nimport \"./DataProfile.sol\";\n\ncontract Registration {\n    mapping(address => DataRequesterList) public drl;\n    mapping(address => DataCreatorList) public dcl;\n    mapping(address => PatientList) public pl;\n\n    DataCreator public dc;\n    DataRequester public dr;\n    Patient public p;\n    OracleService public os;\n    DataProfile public dp;\n\n    address public owner;\n    address public contractAddress;\n\n    struct PatientList {\n        address walletAddress;\n        address contractAddress;\n        bool approved;\n    }\n\n    struct DataCreatorList {\n        address walletAddress;\n        address contractAddress;\n        bytes oracleServiceServer;\n        bool approved;\n    }\n\n    struct DataRequesterList {\n        address walletAddress;\n        address contractAddress;\n        bytes publicKeyIpfsRef;\n        bytes32 role;\n        bool approved;\n    }\n\n    event setDataRequesterInfoLog(\n        address indexed _dataRequestorContractAddress,\n        address indexed _dataRequesterWalletAddress,\n        bytes _publicKeyIpfsRef,\n        bytes32 _role\n    );\n\n    event setPatientInfoLog(\n        address indexed _patientContractAddress,\n        address indexed _patientWalletAddress\n    );\n\n    event setDataCreatorInfoLog(\n        address indexed _dataCreatorContractAddress,\n        address indexed _dataCreatorWalletAddress,\n        bytes _oracleServiceServer,\n        address thiscontract\n    );\n\n    event setupSystemContractsLog(address OracleService, address DataProfile);\n\n    event updateDataRequesterPublicKeyLog(bytes _publicKeyIpfsRef);\n\n    event updateOracleServiceServerLog(bytes _oracleServiceServer);\n\n    event approveDataCreatorLog(address indexed _contract, bool _approved);\n\n    event approvePatientLog(address indexed _contract, bool _approved);\n\n    event approveDataRequesterLog(address indexed _contract, bool _approved);\n\n    modifier onlyOwner() {\n        require(msg.sender == owner, \"Only admin can call this function\");\n        _;\n    }\n\n    constructor() public {\n        owner = msg.sender;\n        contractAddress = address(this);\n    }\n\n    function approveDataCreator(address _dc) public onlyOwner {\n        require(!dcl[_dc].approved, \"DataCreator is alrady approved\");\n        dcl[_dc].approved = true;\n        emit approveDataCreatorLog(_dc, true);\n    }\n\n    function approvePatient(address _p) public onlyOwner {\n        require(!pl[_p].approved, \"Patient is alrady approved\");\n        pl[_p].approved = true;\n        emit approvePatientLog(_p, true);\n    }\n\n    function approveDataRequester(address _dr) public onlyOwner {\n        require(!drl[_dr].approved, \"DataRequester is alrady approved\");\n        drl[_dr].approved = true;\n        emit approveDataRequesterLog(_dr, true);\n    }\n\n    function setupSystemContracts(OracleService _os, DataProfile _dp)\n        public\n        onlyOwner\n    {\n        require(address(_os) != address(0) && address(_dp) != address(0));\n        os = _os;\n        dp = _dp;\n        emit setupSystemContractsLog(address(os), address(dp));\n    }\n\n    function setDataCreatorInfo(\n        address _dataCreatoraWalletAddress,\n        bytes calldata _oracleServiceServer\n    ) external {\n        dcl[msg.sender].walletAddress = _dataCreatoraWalletAddress;\n        dcl[msg.sender].contractAddress = msg.sender;\n        dcl[msg.sender].oracleServiceServer = _oracleServiceServer;\n\n        emit setDataCreatorInfoLog(\n            msg.sender,\n            _dataCreatoraWalletAddress,\n            _oracleServiceServer,\n            address(this)\n        );\n    }\n\n    function setPatientInfo(address _patientWalletAddress) external {\n        pl[msg.sender].walletAddress = _patientWalletAddress;\n        pl[msg.sender].contractAddress = msg.sender;\n\n        emit setPatientInfoLog(msg.sender, _patientWalletAddress);\n    }\n\n    function setDataRequesterInfo(\n        address _dataRequesterWalletAddress,\n        bytes memory _publicKeyIpfsRef,\n        bytes32 _role\n    ) public {\n        drl[msg.sender].walletAddress = _dataRequesterWalletAddress;\n        drl[msg.sender].contractAddress = msg.sender;\n        drl[msg.sender].publicKeyIpfsRef = _publicKeyIpfsRef;\n        drl[msg.sender].role = _role;\n\n        emit setDataRequesterInfoLog(\n            msg.sender,\n            _dataRequesterWalletAddress,\n            _publicKeyIpfsRef,\n            _role\n        );\n    }\n\n    function getDataRequesterInfo(address _dataRequesterContract)\n        public\n        view\n        returns (bytes memory _publicKeyIpfsRef, bytes32 _role)\n    {\n        _publicKeyIpfsRef = drl[_dataRequesterContract].publicKeyIpfsRef;\n        _role = drl[_dataRequesterContract].role;\n    }\n\n    function updateDataRequesterPublicKey(bytes memory _publicKeyIpfsRef)\n        public\n    {\n        require(\n            drl[msg.sender].contractAddress == msg.sender,\n            \"Only DataRequester contract can call this function\"\n        );\n        require(\n            keccak256(drl[msg.sender].publicKeyIpfsRef) !=\n                keccak256(_publicKeyIpfsRef),\n            \"Public key is exist\"\n        );\n\n        drl[msg.sender].publicKeyIpfsRef = _publicKeyIpfsRef;\n\n        emit updateDataRequesterPublicKeyLog(drl[msg.sender].publicKeyIpfsRef);\n    }\n\n    function updateOracleServiceServer(bytes memory _oracleServiceServer)\n        public\n    {\n        require(\n            dcl[msg.sender].contractAddress == msg.sender,\n            \"Only DataCreator contract can call this function\"\n        );\n\n        require(\n            keccak256(dcl[msg.sender].oracleServiceServer) !=\n                keccak256(_oracleServiceServer),\n            \"Oracle Service Server address is exist\"\n        );\n\n        dcl[msg.sender].oracleServiceServer = _oracleServiceServer;\n\n        emit updateOracleServiceServerLog(dcl[msg.sender].oracleServiceServer);\n    }\n}\n",
  "sourcePath": "/Users/fbalwy/Desktop/Test/concent-chain-dapp/contracts/Registration.sol",
  "compiler": {
    "name": "solc",
    "version": "0.5.0+commit.1d4f565a.Emscripten.clang"
  },
  "schemaVersion": "3.3.3",
  "updatedAt": "2021-01-10T20:32:09.686Z",
  "devdoc": {
    "methods": {}
  },
  "userdoc": {
    "methods": {}
  }
}